:100000000C942A000C9447000C9447000C94470071
:100010000C9447000C9447000C9447000C94470044
:100020000C9447000C9447000C9447000C94470034
:100030000C9447000C9447000C9447000C94470024
:100040000C9447000C9447000C9447000C94470014
:100050000C94470011241FBECFE5D8E0DEBFCDBF12
:1000600010E0A0E6B0E0E4EEF3E002C005900D92EF
:10007000AE36B107D9F720E0AEE6B0E001C01D9280
:10008000A937B207E1F70E942D010C94F0010C94FE
:100090000000C29A00C0C2980895CF93C82F66236B
:1000A00011F0C09A01C0C098C198BC9ABD9ABE9A7E
:1000B000BF9AC798C698C598C498CC230CF4C79A21
:1000C000C6FDC69AC5FDC59AC4FDC49A0E944900E2
:1000D000C798C698C598C498C3FDC79AC2FDC69A6A
:1000E000C1FDC59AC0FDC49A0E944900C49AC59A30
:1000F000C69AC79ACF910895E0E4FFE13197F1F7EE
:1001000060E00E944D00089581E00E947C00089507
:10011000E0E4FFE13197F1F761E00E944D000895BE
:10012000CF93DF93EC012196FC018081882329F095
:100130000E94880089918111FBCFDF91CF910895B2
:10014000CF93C82FB89AB99ABA9ABC9ABD9ABE9A58
:10015000BF9AE0E0FAEF3197F1F7C59AC49A0E948E
:100160004900E0E0FEE43197F1F70E944900E0E049
:10017000F1E03197F1F70E944900E0E0F1E03197BA
:10018000F1F7C4980E944900E0E0F1E03197F1F7FF
:100190008CE20E947C0089E00E947C0088E20E9440
:1001A0007C0088E00E947C000E94840086E00E941F
:1001B0007C008C2F0E947C00CF9108955D9BFECF28
:1001C0008CB980E090E0089581E080BD80EA89B933
:1001D00086E880BD549A539A08955F9BFECF8CB1F8
:1001E0000895CF92DF92EF92FF920F931F93CF93D8
:1001F000DF937C01C62E0E94ED0080936E008D304F
:10020000F9F02C2D30E02150310912161306C4F4F8
:10021000F701CFE6D0E06C2D70E09B0122593F4FF3
:1002200069018F010F5F1F4F780180830E94ED00ED
:1002300089938D3029F0CC15DD0511F0F801F1CF4F
:1002400080936E00F7011082DF91CF911F910F9183
:10025000FF90EF90DF90CF900895CF93DF93CDB7CD
:10026000DEB72B970FB6F894DEBF0FBECDBF0E944E
:10027000E4008CE00E94A0000E9484008FEF84BB09
:1002800000E010E00F2EF0E7EF2EF0E0FF2EF02D53
:100290000F2EF1E78F2EF0E09F2EF02D0F2EF2E7BC
:1002A000AF2EF0E0BF2EF02D0F2EF3E7CF2EF0E0B3
:1002B000DF2EF02D0F2EF4E76F2EF0E07F2EF02DC5
:1002C000212C312C44244394512C6BE0CE01019617
:1002D0000E94F100F70180818130C1F580E80E9421
:1002E0007C0080E690E00E94900084E690E00E940E
:1002F0009000F40180810E94880086E690E00E94D0
:100300009000F50180810E948800F60180810E94A2
:10031000880088E690E00E94900084E690E00E94C9
:100320009000F40180810E948800F50180810E9484
:100330008800F60180810E948800F30180810E947C
:100340008800E5E7F0E080810E948800F701808165
:100350008230C1F580EC0E947C008AE690E00E9429
:10036000900084E690E00E949000F40180810E9459
:10037000880086E690E00E949000F50180810E944E
:100380008800F60180810E94880088E690E00E9443
:10039000900084E690E00E949000F40180810E9429
:1003A0008800F50180810E948800F60180810E940A
:1003B0008800F30180810E948800E5E7F0E08081F9
:1003C0000E948800F70180810E94DE00012B21F449
:1003D000A89A042D152D79CFA898022D132D75CF2D
:0403E000F894FFCFBF
:0E03E40045313A0020002E00560045323A0006
:00000001FF
